:020000040800F2
:10000000F8180120A9020008B1020008B302000894
:10001000B5020008B7020008B9020008000000009D
:10002000000000000000000000000000BB0200080B
:10003000BD02000800000000BF020008C304000861
:10004000C3020008C3020008C3020008C30200087C
:10005000C3020008C3020008C3020008C30200086C
:10006000C3020008C3020008C3020008C30200085C
:10007000339C0008C3020008C3020008C302000842
:10008000C3020008C3020008D7040008C302000826
:10009000D1E60008C3020008C3020008C30200083A
:1000A000C3020008C3020008C3020008C30200081C
:1000B000AF080008C3020008EF070008C3020008E9
:1000C000C3020008C3020008C3020008C3020008FC
:1000D000C3020008C3020008C30200086B9C0008AA
:1000E000C3020008C3020008C3020008C3020008DC
:1000F000C3020008C3020008C3020008C3020008CC
:10010000C3020008C3020008C30200081F0A000857
:10011000C3020008C3020008C3020008C3020008AB
:10012000C3020008C3020008C3020008C30200089B
:10013000C3020008C3020008C3020008C30200088B
:10014000C3020008C3020008C3020008C30200087B
:10015000C3020008C3020008C3020008C30200086B
:10016000C3020008C3020008C3020008C30200085B
:10017000C3020008C3020008C3020008C30200084B
:10018000C3020008C3020008C3020008C30200083B
:10019000C3020008C3020008DFF80CD00FF004F916
:1001A00000480047AD010008F818012008B500F02C
:1001B0006EF903F076FD3A4D3A49B5F90000B1F910
:1001C0000010884203D003F025FF03F06AFD4FF4CE
:1001D000FA7000F0F0FC00240094B5F8A40064214B
:1001E00010FB01F395F8A2100322204609F0DAFA79
:1001F0000EF058F909F03DFB294EAA36748602200C
:10020000A6F85C0006F1740132204886A1F5A875B5
:10021000688B00B16C83E88B00B1EC83288C00B153
:100220002C84688C40B11F486C84801C0AF0ACFDA3
:100230000EF08EF903F0D3FCA88C90B1AC8403F0DF
:1002400016FD04F056FCB6F85C00022801D105F05A
:1002500083FCB6F85C00012801D105F0E5FA04F052
:1002600097FC288D80B12C8504F0C3FCB6F85800AB
:1002700018B1A6F8584003F0CDFEB6F85A0018B1F0
:10028000A6F85A4004F095F9688D00B16C85A88DE8
:1002900000B1AC85E88D0028BAD0EC85B8E7000045
:1002A00062140020000000200648804706480047EE
:1002B000FEE7FEE7FEE7FEE7FEE7FEE7FEE7FEE716
:1002C000FEE7FEE761030008990100085949002094
:1002D0000A6842F480320A604FF400430A68401C06
:1002E000C2F340420AB99842F8D10868C0F34040CE
:1002F00088B35148026822F003020260026842F0AB
:100300000402026048684860486840F40050486051
:10031000486840F4A06048604868484A1040486017
:100320004868474A40F4803010434860086840F00D
:100330008070086008688001FCD5486820F00300E0
:100340004860486840F0020048604868C0F3810097
:100350000228FAD17047FFE73B493A480860F9E7BD
:100360003A4810B5016841F47001016031480168F4
:1003700041F0010101604168354A11404160016866
:10038000344A11400160016821F480210160416814
:10039000314A114041600021C16201634FF41F01E5
:1003A0008160C16941F08051C1612C49CA6842F045
:1003B0000102CA60C16921F08051C1611E48016813
:1003C00041F090010160FFF781FF20494FF000608C
:1003D0008039086010BD174A10B55068194B1A498A
:1003E00010F00C0003D0042801D0082801D00B60C5
:1003F00016E050681A4B18405368040103F4803328
:1004000001D4022401E06FF4F77404EB904013B1BF
:1004100053689B0301D5134B00E00A4B5843086017
:100420005068114AC0F30310105C0A68C2400A60A9
:1004300010BD00000010024000200240FFFFC0F786
:100440000000040800127A00B002002088ED00E0ED
:1004500000C0FFF8FFFFF6FEFFFF00F7007000404E
:1004600000003C0800093D0060FB000810B50121B8
:100470000C07204602F07DF93F49C86840F00102B0
:10048000CA602046BDE81040002102F072B910B5E4
:10049000FFF7ECFF00F07EF872B600F056F900F0BE
:1004A000CEF800F0A1FB00F037FA00F04BFB00F0B3
:1004B00065F909F046FB4FF4E13009F0DBFA62B66A
:1004C00010BD10B52D4805F04FF905F05BF8BDE8FB
:1004D000104004F0BCBE70B5294D4FF49061284621
:1004E00000F018FE01280CD04FF4A071284600F04F
:1004F00011FE01282FD12846BDE87040012100F0EF
:1005000005BE0421284600F001FE1E490968C906FF
:1005100021D52021284600F0C8FD1B4C1821208041
:10052000284600F0C2FD60801421284600F0BDFD81
:10053000A080B4F90200154AC0F500605080B4F9FB
:100540000410C1F500619180114A11805080BDE80E
:10055000704004F0F8BD70BD10B50A4C80212046F3
:1005600003F0EEF8002805D02046BDE810408021B9
:1005700003F0F2B810BD00000070004030140020FD
:10058000000C0240002C0140E02D0020B4020020AD
:100590000C15002010B501F07FFF4FF48034204689
:1005A00001F097FF01F0C2FF012824D1002001F0E3
:1005B000F6FF002002F001F8A01101F0F7FF802003
:1005C00001F018FB002001F006FB042001F0FCFA0A
:1005D000C749204601F0CBFF012001F0D1FF3920AF
:1005E00001F08FFF0028FAD0022001F0CCFF01F0CB
:1005F000D1FF0828FBD1012140F2FD1002F0B0F834
:100600000121BC4801F090FE01214FF4405002F05E
:100610009EF8042002F010F80121C80202F0A0F8B0
:100620000121C80402F0A5F8012141F20C0002F0FA
:1006300097F80121BDE81040C80302F09AB82DE9EF
:10064000F84F4FF46047ADF800700324AA4E8DF8C0
:10065000024010258DF803506946304601F0D7FD61
:100660006902304601F03DFEA902304601F039FE34
:100670002E02DFF888A2ADF800608DF803506946BD
:10068000504601F0C4FD00223146504601F02FFED5
:10069000684601F00AFE4FF47060ADF800004FF0BC
:1006A00018088DF803808DF802406946504601F025
:1006B000AEFDDFF84C92ADF800706946484601F097
:1006C000A6FD684601F0F1FD00208DF80300202012
:1006D000ADF800006946504601F099FDADF80050B4
:1006E0006946504601F093FD8020ADF80000694650
:1006F000504601F08CFD3820ADF800008DF8024026
:100700008DF803806946484601F081FDEF02ADF89F
:1007100000708DF803508DF802406946504601F094
:1007200076FD3946504601F0DCFDADF800608DF8ED
:1007300003508DF802406946484601F068FD314695
:10074000484601F0D2FDBDE8F88F70B54FF0E024C7
:1007500043F63F00606165170F21284600F0B8F8A6
:100760000020A06107202061206940F00400206182
:100770002846BDE87040022100F0AAB870B586B0E6
:1007800023250121042001F0F4FF684602F012FD48
:100790007D20ADF8040000245A4EADF80050ADF8AD
:1007A0000640ADF802406946304602F0E2F9012207
:1007B0002946304602F09CFD5248243004801E2019
:1007C0008DF810008DF811408DF8124001208DF841
:1007D000130004A800F0B1FA01221146304602F0DD
:1007E00028FD0121304602F00FFD06B070BD10B5A6
:1007F000444C0121204602F0A3FF00281FD0012114
:10080000204602F0A9FF4048404CB0F90000B4F97E
:100810000010084313D13E48008806280FD04FF43B
:100820000041364801F061FD012000F083F902200B
:100830002080BDE810404AF2030000F0EFB810BD80
:1008400070B5012186B00825084601F092FF684680
:1008500002F0B0FC4FF6FF70ADF804000024ADF8D4
:100860000050EE06ADF80640ADF80240694630464D
:1008700002F07FF901222946304602F039FDB484A6
:100880001C208DF810008DF811408DF812400120C9
:100890008DF8130004A800F050FA012211463046EA
:1008A00002F0C7FC0121304602F0AEFC9DE710B516
:1008B00001218C07204602F043FF002807D00121C8
:1008C000204602F049FF13480168491C016010BD31
:1008D0000907090E002804DB00F1E02080F800146D
:1008E000704700F00F0000F1E02080F8141D704701
:1008F0000000040800023000001001400008014020
:10090000000C014000080040980200209A020020DC
:10091000C0150020BC02002070B5334E86B03046B2
:1009200000F05AFA314D284600F056FA684600F0B9
:1009300094FA4FF4A0200090002001248DF8044088
:100940008DF80500029003908DF81000694630463E
:1009500000F064FA6946284600F060FA0321284650
:1009600000F096FB032301220421284600F063FBDC
:10097000022203231146284600F05DFB03231A469A
:100980000121284600F057FB0121284600F038FBE2
:100990004FF4A06000F0CCF912208DF81400022072
:1009A0008DF815008DF816408DF8174005A800F059
:1009B000C4F90121284600F059FA2021284600F008
:1009C00019FC0028F9D0284600F06DFA284600F0FE
:1009D0006FFA0028FAD101224FF4B861284600F0DE
:1009E00059FA06B070BD000000080240000C024039
:1009F00070B506460024764D05E0641CA4B2C82CF0
:100A000001D9002070BD0221284602F02FF80028ED
:100A1000F3D03146284601F0E5FFF2E7E8E72DE99B
:100A2000F05F4FF00008464647466021684802F0F4
:100A300027F800285AD0674C43F21312664DB4F9D8
:100A40000000DFF898A1811A4FF6FF7B4FF00009F4
:100A5000904259D023DC80B3012834D0022845D1FC
:100A60005B4801F0C1FF6880A4F800904FF400419A
:100A70005B4801F036FC2888698801EB004041059D
:100A800000D50126810501D54FF00108C10500D52B
:100A90000127C00A46EA08063E431CD021E001298E
:100AA00038D0A1F6FB61B1F5005121D001291DD14B
:100AB000474801F099FF688035E0FFE7444801F0BE
:100AC00093FF012004E0424801F08EFF28800220BD
:100AD0002080584615E047F6FF71A1EB9011AAF867
:100AE00038104049A4F80090A1F80090BDE8F09FAC
:100AF000374801F079FF688046F20F00208047F206
:100B00007000BDE8F05F89E7314801F06DFF43F206
:100B10001410DDE72E4801F067FF6880810BAAF80A
:100B20003E10A4F80090BDE8F05F4FF400412C485F
:100B300001F0D7BB052100E0401E0028FCD1491E72
:100B4000FBD1704730B587B033208DF814000225F3
:100B50008DF8155001248DF816408DF8174005A822
:100B600000F0EBF80020ADF800004FF48271ADF812
:100B70000210E102ADF80410ADF808408910ADF89C
:100B80000A101821ADF80C10ADF80E000720104C1B
:100B9000ADF81000ADF806506946204601F07EFE23
:100BA00001226021204601F009FF0121204601F0C9
:100BB000F1FE07B030BD00224FF4E15304E0002104
:100BC000491C9942FCD3521C8242F8D37047000062
:100BD000003C004098020020C00200208015002048
:100BE000000801409A02002070B54E4E8EB041F2CE
:100BF0009315304601F068FF09A802F0DBFA0024E3
:100C0000ADF824402020ADF82600ADF82850ADF80E
:100C10002A408DF82C4009A9304601F0AAFF684609
:100C200002F0D7FA6020ADF80000ADF8044068107B
:100C3000ADF80600ADF80840ADF80C40ADF8024044
:100C4000ADF80A40ADF80E406946304602F028F88B
:100C50006946304602F086F80220ADF80800694681
:100C6000304602F049F86946304602F0ADF82021DE
:100C7000304602F0F9FC0821304602F0BFFB0821A3
:100C8000304602F0C1FB0821304602F0C7FB0821C4
:100C9000304602F0C9FBF014ADF810004010ADF87A
:100CA00012008000ADF818004000ADF81440ADF817
:100CB0001A00ADF81C40ADF816408DF81E4004A98E
:100CC000304602F04FFA0121304602F09DFA012130
:100CD000304602F0A3FA0EB070BD124910B52031B3
:100CE000086880B220F0110020F488500860891450
:100CF0000D4801F0FAFA0D490020888610BD094917
:100D000010B52031086880B240F0110040F48850DE
:100D100008608914044801F0E4FA04490120888637
:100D200010BD0000002C0140000801400C150020FF
:100D30002649084326490860704730B50F23C2781A
:100D400001780125F2B1224A126801F1E02102F492
:100D5000E062C2F5E062120AC2F10404D3404278B4
:100D6000A24084781C401443220181F800240078BA
:100D700000F01F018D404009800000F1E020C0F824
:100D8000005130BD01F01F0085404809800000F18E
:100D9000E020C0F8805130BD0E4A114001430C489C
:100DA000001F016070470A4A121D0029116801D016
:100DB000014300E0814311607047042805D14FF0E2
:100DC000E020016941F00401016170470000FA056B
:100DD0000CED00E080FFFF1FFD4910B5884202D1F5
:100DE0000121841410E0FB49884202D101214C0307
:100DF0000AE0F949884202D101218C0304E0F74955
:100E000088420AD10121CC03204601F0BBFC2046D8
:100E1000BDE81040002101F0B5BC10BD10B542681E
:100E2000EF4B0C791A400B6842EA042213434360EB
:100E30008268EC4B1A40D1E9024323434C7942EAE1
:100E4000440213438360C26A097C22F47002491E83
:100E5000C9B242EA0151C16210BD002101600171B5
:100E600041718160C160012101747047002981686E
:100E700002D041F0010101E021F0010181607047E1
:100E80000029816802D041F4807101E021F4807171
:100E900081607047002A4268C9B201D00A4300E06D
:100EA0008A4342607047816841F004018160704765
:100EB000014600208968490700D5012070470029B4
:100EC000816802D041F4A00101E021F4A001816019
:100ED0007047014600208968490200D5012070470B
:100EE0004268491E22F4604242EA41314160704743
:100EF0000029416802D041F4006101E021F4006161
:100F00004160704770B512290DD00726092910D904
:100F1000C568A1F10A0404EB4404A640B543A3400C
:100F20001D43C5600DE0C46D24F007041C43C46577
:100F300007E0056901EB4104A640B543A3401D430A
:100F400005611F23072A09D2446B521E02EB82025D
:100F500093409C4391400C43446370BD0D2A09D2D9
:100F6000046BD21F02EB820293409C4391400C43DE
:100F7000046370BDC46A0D3A02EB820293409C4345
:100F800091400C43C46270BD0029816802D041F4D5
:100F9000801101E021F4801181607047C06C80B243
:100FA00070478B49884201D1012100E00021894A24
:100FB000904201D1012000E00020014302D084488A
:100FC0004C3001E084484C3000687047002941688B
:100FD00002D041F4806101E021F4806141607047FA
:100FE0000029416802D041F4805101E021F4805190
:100FF00041607047826822F4E0420A438260704791
:101000000029816802D041F4004101E021F400414F
:10101000816070470029816802D041F4021101E02B
:1010200021F402118160704701460020896889021D
:1010300000D50120704770B512290DD00726092967
:1010400010D9C568A1F10A0404EB4404A640B543D5
:10105000A3401D43C5600DE0C46D24F007041C438C
:10106000C46507E0056901EB4104A640B543A34010
:101070001D430561836BC3F30154121B921C02EBE9
:1010800082021F249440A34391400B43836370BDAD
:10109000826B491E22F4401242EA0151816370477B
:1010A00008B508440090026008BD08B5084428301F
:1010B0000090006880B208BD42684B4B1A400A435A
:1010C00042607047416282627047426822F01F02AC
:1010D0000A43426070473E4B444A08330028116877
:1010E000186805D040F40000186041F4806004E006
:1010F00020F40000186021F4806010607047024600
:10110000002012680A4200D00120704702688A431A
:101110000260704710B50246002054680B0AC9B23D
:101120000C401168194202D0002C00D0012010BDE3
:10113000026822EA11220260704710B50A7A002A7A
:10114000C26D02D042F0080201E022F00802C2653E
:10115000826D0C78254B2CB11C6842F4006244F47B
:10116000806404E01C6822F4006224F480641C6043
:101170004B7813B142F4806201E022F480628B78F4
:1011800013B142F4007201E022F40072CB7813B183
:1011900042F4807201E022F480724B7913B142F084
:1011A000080201E022F008028B7913B142F0040238
:1011B00001E022F0040222F00303CA7909791A43FC
:1011C00022F01002012901D142F01002826510BD07
:1011D00000080240000C024000180240001C0240BF
:1011E000FFFEF0FFFDF7F1FFFFFD3FFF201800407D
:1011F0000165704702460020926D0A4200D001202E
:101200007047826D11B142F0800101E022F080014F
:1012100081657047826D22F003020A438265704740
:1012200010B50C4640B10121204601F0FAF900202A
:10123000BDE8104001F000BA00214FF4807001F0C9
:10124000F0F92046F4E70000FD4910B588424FF060
:10125000010101D14C0601E04FF08064204601F00D
:10126000A3FA2046BDE81040002101F09DBA10B558
:101270000368002223F002030360036843F00103C4
:1012800003604FF6FF7300E0521C4468E40701D18D
:101290009A42F9D14268D2073ED08A79012A02687F
:1012A0003CD022F080020260CA79012A026838D05C
:1012B00022F0400202600A7A012A026834D022F049
:1012C000200202604A7A012A026830D022F010021D
:1012D00002608A7A012A02682CD022F00802026099
:1012E000CA7A012A026828D022F0040202608A78B1
:1012F000CC78920742EA04620C7942EA04424C79C3
:10130000098842EA0452491E0A43C261016821F079
:1013100001010160002114E0002010BD42F08002B4
:10132000C1E742F04002C5E742F02002C9E742F0BF
:101330001002CDE742F00802D1E742F00402D5E7FF
:10134000491C4268D20701D09942F9D14068C007D0
:10135000E2D1012010BDF0B5827ABA4D0121914051
:101360002A6842F001022A60B64E1C3632688A436F
:101370003260B44A047BB44B0C32A4B914688C4379
:1013800014604488C78844EA0744877A03EBC70798
:10139000C7F840460488878844EA0744877A03EB05
:1013A000C707C7F84446047B012C12D114680C43CC
:1013B0001460847A026803EBC4044FEA3242C4F832
:1013C0004026847A426803EBC4034FEA3242C3F8F2
:1013D00044269C4AC37A121D002B136806D00B4387
:1013E0001360984A0389143213B104E08B43F7E782
:1013F00013688B4313600389012B02D113680B43DD
:101400001360407B012802D13068084330602868AF
:1014100020F001002860F0BDF0B5827A8B4D0121EB
:1014200091402A6842F001022A60884E1C363268D8
:101430008A433260854A047B834B0C32A4B914681A
:101440008C4314604488C78844EA0744877A03EBD6
:10145000C707C7F8404A0488878844EA0744877A60
:1014600003EBC707C7F8444A047B012C12D1146868
:101470000C431460847A026803EBC4044FEA3242DE
:10148000C4F8402A847A426803EBC4034FEA32422C
:10149000C3F8442A6D4AC37A121D002B136806D084
:1014A0000B431360694A0389143213B104E08B4380
:1014B000F7E713688B4313600389012B02D113688C
:1014C0000B431360407B012802D130680843306031
:1014D000286820F001002860F0BD00218171C171F1
:1014E000017241728172C1728170C17003210171F8
:1014F000022141710121018070470029016802D059
:1015000041F4803101E021F480310160704700290D
:10151000016813D041F080010160D0F8841141F4DA
:101520008071C0F88411D0F8941141F48071C0F832
:101530009411D0F8A41141F4807112E021F08001DF
:101540000160D0F8841121F48071C0F88411D0F8C2
:10155000941121F48071C0F89411D0F8A41121F4F1
:101560008071C0F8A411704730B50246002093681E
:101570005B0108D49068000101D5012003E0906868
:10158000C00037D5022002EB0012D2F8803103F000
:101590000103C2F880310B7A73B3D2F880414D68F1
:1015A0001C434B7A43EAC5031C43C2F880418B7A43
:1015B00003F00F038B72D2F8843123F00F03C2F8CB
:1015C0008431D2F884318C7A2343C2F88431CB7AC7
:1015D000CC6843EA0423C2F88831CB7B096943EA2B
:1015E0000121C2F88C11D2F8801141F00101C2F83A
:1015F000801130BD042030BDD2F880314C7A2343B5
:101600000C8843EA4453C2F88031D0E7002221B16C
:10161000012905D0022906D120E082680C4801E0AA
:1016200082680C4802400C49501A8A4222D018DCC9
:1016300012B36FF0806010181DD002281AD11DE07F
:10164000006400400066004000600040006A004006
:101650000300000400030008000100088268DF485E
:10166000E0E7B0F5007F09D0DD49401803D0B0F5C0
:10167000003F03D0002070470220704701207047D0
:1016800041B101290AD0022903D1816841F4000146
:1016900081607047816841F08001F9E7816841F419
:1016A0000041F5E710B500EB0113D3F8B04114F099
:1016B00004041472D3F8B04133D0E4085460D3F872
:1016C000B04104F002045472D3F8B44104F00F04A2
:1016D0009472D3F8B441240AD474D3F8B841D472C4
:1016E000D3F8B841240A1473D3F8B841240C5473C6
:1016F000D3F8B841240E9473D3F8BC41D473D3F813
:10170000BC41240A1474D3F8BC41240C5474D3F89B
:10171000BC311B0E937439B1016941F020010161A4
:1017200010BD640D1460CAE7C16841F02001C160BA
:1017300010BD21B1016941F0200101617047C1680C
:1017400041F02001C16070470246002029B1012903
:1017500002D1106900F003007047D068FAE7002357
:101760004FF6FF7221B1012917D0022924D03AE0A7
:10177000016821F0020141F00101016000E0521E08
:10178000416801F00301012901D0002AF7D1406826
:1017900000F00300012823D124E0016821F00301B7
:1017A000016000E0521E4168890701D0002AF9D18A
:1017B0004068800714D115E0016821F0010141F073
:1017C0000201016000E0521E416801F0030102299C
:1017D00001D0002AF7D1406800F00300022801D0B0
:1017E000002300E00123184670470268002122F020
:1017F000010242F002020260406800F00300022889
:1018000000D101210846704702684FF6FF7100239E
:1018100022F00202026000E0491E4268920701D5F0
:101820000029F9D14068800700D401231846704789
:101830008069C0F30210000170478069000E704794
:101840008069C0F307407047002A426901D00A430B
:1018500000E08A43426170470246002011F4700F95
:1018600003D0926904E001207047CB0104D552688F
:101870000A401103F7D170470B0101D59268F7E7D1
:101880008B0101D5D268F3E71269F1E7554A91421D
:1018900002D1002181617047C1F313028B0101D590
:1018A000C26070474B0101D502617047090101D543
:1018B00082607047426070470246002053690B42C5
:1018C0004AD0B1F5807F3BD013DC08292ED007DC4D
:1018D000012926D0022927D004293DD1D0682BE048
:1018E000102925D0202926D0402935D11069102172
:1018F00030E0B1F5004F2BD00BDCB1F5007F22D0EA
:10190000B1F5806F22D0B1F5006F25D190697021BB
:1019100020E0B1F5803F11D0B1F5003F1CD15068F7
:10192000E5E79068304915E0D06802E0D068DEE76E
:10193000106903210EE0106908210BE05068FBE7F5
:101940009069012106E09069022103E0906900E0BE
:101950005068042100F03BB8704730B508231024CC
:101960000422B1F5007F1DD010DC202929D007DC2E
:10197000012921D0042922D0082900D1C46030BD1A
:10198000402920D0B1F5807FF9D10BE00025B1F5D9
:10199000004F06D008DCB1F5806F03D0B1F5006FC1
:1019A000EDD18561426030BDB1F5803F0DD0B1F51C
:1019B000003FF8D1446030BD0B49816030BDC36049
:1019C00030BD036130BD046130BD436030BD0246AF
:1019D00000200A4200D001207047000000000310E0
:1019E0000001FFF77000F0300101010001684FF6BF
:1019F000FE72114001600021016041608160C160A0
:101A00006F496F4A0839904203D1486840F00F008F
:101A100006E06B4A1432904204D1486840F0F0006E
:101A200048607047664A2832904203D1486840F4C3
:101A30007060F5E7624A3C32904203D1486840F456
:101A40007040EDE75E4A5032904203D1486840F45E
:101A50007020E5E75A4A6432904203D1486840F466
:101A60007000DDE7564A7832904203D1486840F072
:101A70007060D5E7524A8C32904203D1486840F0FA
:101A80007040CDE74F4A111F904203D1086840F0E3
:101A90000F0006E04B4A1432904204D1086840F02F
:101AA000F00008607047474A2832904203D1086826
:101AB00040F47060F5E7434A3C32904203D1086835
:101AC00040F47040EDE73F4A5032904203D108683D
:101AD00040F47020E5E73B4A6432904203D1086845
:101AE00040F47000DDE7374A7832904203D108684D
:101AF00040F07060D5E7334A8C329042D2D108680A
:101B000040F07040CDE730B5026847F6F0739A4375
:101B10000C6A8B682343D1E904452C4323438C6929
:101B20002343CC6923434C6A23438C6A23431343E6
:101B30000360CA6842600A6882604968C16030BD5B
:101B40000021016041608160C1600161416181618A
:101B5000C16101624162816270470029016802D05F
:101B600041F0010102E04FF6FE7211400160704742
:101B7000002A026801D00A4300E08A4302607047ED
:101B800041607047406880B2704702460968002093
:101B9000114200D001207047486070470246096832
:101BA0000020114200D0012070474860704713B1F7
:101BB0001061012000E00020C1F8A800704700007B
:101BC0000800024008040240FE4A116801F0F801D2
:101BD000014311607047FB490A6822F010020A6055
:101BE0000A6802430A607047F648016841F0400104
:101BF00001607047F3490A6822F080020A600A68AF
:101C000002430A607047EF490A6943F6FF631A40CE
:101C10000A610A6902430A617047EA48EA49416079
:101C2000EA4941607047E748016941F0800101617C
:101C30007047E4490620CA68D20701D001207047E6
:101C4000CA68520701D503207047CA68120701D538
:101C500004207047CA68D20601D505207047C968BC
:101C60004906FBD50720704700B50346FFF7E1FFA3
:101C700002E0FFF7DEFF5B1E012803D0002B00D13E
:101C80000A2000BD002BF4D1FAE7CE49CA6802430E
:101C9000CA60704770B505467C20FFF7F6FF4FF429
:101CA00030263046FFF7E0FF062811D1C54C2069E9
:101CB00040F0020020616561206940F04000206131
:101CC0003046FFF7D1FF216943F6FD7211402161D3
:101CD00070BD30B57C20FFF7D8FF4FF43025284683
:101CE000FFF7C2FF062810D1B64C206940F004006F
:101CF0002061206940F0400020612846FFF7B4FFD2
:101D0000216943F6FB721140216130BDAD490020CD
:101D1000C969890700D501207047AA490020C9690F
:101D2000002900DA0120704770B5A94DFFF7F5FFD3
:101D300008B1082070BDFFF7E9FF08B14FF47F0537
:101D40007C20FFF7A2FF4FF430263046FFF78CFFD0
:101D50000628EFD19B4C9C48A0609C48A06020695D
:101D600040F020002061206940F0400020613046B2
:101D7000FFF77AFF43F6DF73062805D00A28D9D08B
:101D800021691940216170BD7C20FFF77EFF206929
:101D900018402061206940F0100020618D480560E6
:101DA0004FF40050FFF760FF0A28ECD0216943F69A
:101DB000EF721140E6E7F8B50546002000900E46A8
:101DC000A80701D00920F8BD7C20FFF75EFF4FF483
:101DD00000573846FFF748FF0628F4D1794C2069B0
:101DE00040F0010020612E603846FFF73DFF216979
:101DF00043F6FE7211402161F8BDF0B506460D466E
:101E00007C20FFF742FF4FF400573846FFF72CFFC6
:101E10000246FFF782FF08B10820F0BD062A14D160
:101E2000684C6948A0606948A060206940F01000D3
:101E3000206135603846FFF717FF02460A2804D0B4
:101E4000206943F6EF71084020611046F0BD2DE98E
:101E5000F0410246FFF761FF10B10820BDE8F081B4
:101E6000D043C7B2C0F30726C0F30745040E7C2059
:101E7000FFF70BFF4FF400584046FFF7F5FE06282A
:101E8000ECD1DFF840C15049CCF808104F49CCF8EC
:101E90000810DCF8101041F01001CCF81010FF2FE2
:101EA00001D1FF2E07D04B4947EA064008310860B0
:101EB0004046FFF7D9FEFF2D01D1FF2C0CD006289C
:101EC0000AD17C20FFF7E1FE424945EA04400C318B
:101ED00008604046FFF7C8FE0A28BFD0DCF81010A3
:101EE00043F6EF721140CCF81010B7E7F0B5354D5E
:101EF0000646E86900F01C008403FFF70EFF08B1F6
:101F00000820F0BD7C20FFF7C0FE4FF43027384694
:101F1000FFF7AAFE0628F4D12B48A8602B48A8603A
:101F2000286940F020002861286940F040002861BD
:101F30003846FFF799FE43F6DF73062805D00A28D6
:101F4000DFD0296919402961F0BD7C20FFF79DFE93
:101F5000286918402861286940F0100028611D4850
:101F600016B104F47F0101E044F0A5010160384698
:101F7000FFF77AFE0A28E7D0296943F6EF7211408D
:101F8000E1E770B50F4DE86900F01C008403FFF72E
:101F9000BDFE08B944F0A504FFF7BFFE08B1082054
:101FA00070BD7C20FFF771FE4FF430263046FFF7FE
:101FB0005BFE0628F4D10448A8600448A86028699C
:101FC0000AE000000020024023016745AB89EFCD05
:101FD000A500FFFF00F8FF1F40F0200028612869DE
:101FE00040F0400028613046FFF73EFE43F6DF73C5
:101FF000062805D00A28D3D029691940296170BD67
:102000007C20FFF742FE286918402861286940F0CB
:10201000100028614C4804603046FFF725FE062872
:1020200009D17C20FFF731FE47494848103108604C
:102030003046FFF719FE0A28E1D0296943F6EF720E
:102040001140DBE72DE9F04117460E468446404C2F
:10205000FFF763FE08B1082000E7FFF757FE08B15D
:102060003B4CA53C3C4D3B48A8603C48A8607C20CC
:10207000FFF70BFE4FF430284046FFF7F5FD06282A
:10208000EAD1286940F020002861286940F040002A
:1020900028614046FFF7E8FD43F6DF73062805D0C8
:1020A0000A28D9D0296919402961D7E67C20FFF791
:1020B000ECFD286918402861286940F0100028616B
:1020C0003E4346EA0C06204946F0F80044EA004048
:1020D00008604FF40050FFF7C7FD0A28BCD02969FB
:1020E00043F6EF721140DFE71B48C069C0F382007E
:1020F00070471948006A7047174900200968890627
:1021000000D50120704714490020096943F6FF6299
:10211000114200D0012070470F4A0029116901D0F7
:10212000014300E0814311617047014600200A4AE3
:10213000012903D0D2680A4203D17047D169C90787
:10214000FBD001207047000000F8FF1FCC33FFFFD9
:10215000A500F8FF2301674500200240AB89EFCDC1
:10216000C34910B5884206D10121042000F013FBB9
:10217000002104203BE0BF49884206D1012108200C
:1021800000F009FB0021082031E0BB49884206D15C
:102190000121102000F0FFFA0021102027E0B749AC
:1021A000884206D10121202000F0F5FA00212020EC
:1021B0001DE0B349884206D10121402000F0EBFA2E
:1021C0000021402013E0AF49884206D10121802040
:1021D00000F0E1FA0021802009E0AB4988420AD1F1
:1021E00084150121204600F0D6FA00212046BDE8E2
:1021F000104000F0D0BA10BD10B50121084600F023
:10220000CAFA0021BDE81040012000F0C4BAF0B5C0
:10221000CC78002204F00F03E40601D58C78234328
:102220000C784FF00F0C14F0FF0F4FF0010E1BD085
:1022300005680E880EFA02F42640A64210D19600D8
:102240000CFA06F725EA070703FA06F5CE783D43B0
:10225000282E02D0482E02D002E0446100E0046142
:10226000521C082AE5D305600A88FF2A1CD9446855
:10227000002202F108060EFA06F50E882E40AE4244
:102280000ED196000CFA06F7BC4303FA06F7CE7897
:102290003C43282E00D14561CE78482E00D10561FF
:1022A000521C082AE5D34460F0BD4FF6FF7101804F
:1022B000012181700421C17070470246002092689C
:1022C0000A4200D001207047806880B27047024601
:1022D0000020D2680A4200D001207047C06880B256
:1022E00070470161704701617047416170470AB1F1
:1022F0000161704741617047C160704741F48032AD
:102300008261816182618169806970475F4B10B52C
:102310001A684FF68074224042EA001008431860A1
:1023200010BD5B49C8617047F0B5584B002801DA11
:10233000DA690CE0420001D51A6A08E0820001D592
:102340005A6A04E0C20001D59A6A00E05A68514C0A
:1023500086B200EA0407C0F34054250184B2AC40C1
:10236000B7F5401F0CD0C70210D586024FF0030509
:10237000C0F3034705FA07F500D52D04AA4344E04E
:102380005D6822F0706225F0706533E0C70117D5F3
:10239000470710D5850122EA040208D500295968AB
:1023A00002D041F0010118E021F0010119E05D685F
:1023B00025F001051CE046F00406AE40B243EDE70F
:1023C000470121D5070717D5850122EA04020CD55C
:1023D0000029596815D041F0080141F07061596039
:1023E00019E041F07061596016E05D6825F008055C
:1023F00045F070655D600DE046F00806AE40B24302
:10240000E6E721F00801ECE7A24310F0E04F01D12C
:1024100042F0706201B12243002801DADA61F0BDB6
:10242000410001D51A62F0BD810001D55A62F0BDAC
:10243000C00001D59A62F0BD5A60F0BD10B58A07A0
:1024400021F003041149120F21440F238C6893409B
:102450009C438C608B68904003438B6010BD0B499C
:102460004A6822F400024A604A6802434A607047A0
:1024700000080140000C0140001001400014014020
:1024800000180140001C01400020014000000140F4
:102490000000204200003070E348016841F0010173
:1024A00001604168E14A114041600168E04A114021
:1024B0000160016821F4802101604168DD4A11401A
:1024C00041604FF46051C16201634FF41F018160AC
:1024D0007047D5490A6822F480320A600A6822F4FB
:1024E00080220A60B0F5803F07D0B0F5802F03D17D
:1024F000086840F4A02008607047086840F4803005
:10250000F9E7034600205909C74A01290AD00229E0
:102510000AD0516A03F01F02012393400B4200D0FE
:10252000012070471168F5E7116AF3E718B500203C
:102530004FF4004400903120FFF7E3FF0099491C5D
:102540000091A14201D00028F5D03120FFF7D9FF3A
:10255000002800D0012018BDB34A116821F0F8010D
:1025600041EAC00010607047B34908607047AE4B45
:1025700010B55A68B14C084322401043586010BD52
:10258000AD4908667047A84A516821F0030101432C
:1025900051607047A448406800F00C007047A24AA0
:1025A000516821F0F0010143516070479E4A516823
:1025B00021F4E0610143516070479B4A516821F466
:1025C000605141EAC00050607047974A0029517A33
:1025D00001D0014300E0814351727047964941F8B0
:1025E000D80F4008486070478F4AD16A21F00051E7
:1025F0000143D16270478C4AD16A21F0F8510143FE
:10260000D1627047884AD16A21F480110143D162B6
:102610007047854BDA6A22F47C4202430A43DA624D
:102620007047814BDA6A22F4F87242EA000209B973
:1026300022F48072DA6270477B4AD16A21F00F017E
:102640000143D1627047784B1A6B22F43E32024349
:102650000A431A63704774490028086B02D040F49B
:10266000802001E020F48020086370476E4900223A
:1026700081F8202081F82020012802D0042802D1EE
:10268000052081F8200070476D4908607047664951
:102690000A6A22F440720A620A6A02430A627047B6
:1026A000674944390860704770B55F4B5968654A9F
:1026B00011405A680C0102F4803201D4022401E076
:1026C0006FF4F77404EB914112B15A68920301D58B
:1026D0005D4A00E05D4A51435A685C4C12F00C02BE
:1026E00003D0042A01D0082A01D0046000E0016070
:1026F0005A680F2404EA1212554CA55C0268EA409D
:1027000042605D68072606EA1525655D22FA05F533
:1027100085605D6806EAD525645D22FA04F4C4602C
:10272000DC6A4B4D04F00F0410352C5DB2FBF4F263
:102730004261DA6A1F2303EA121202F00F0205F166
:10274000100333F81220B1FBF2F1016170BD364A7B
:102750000029516901D0014300E081435161704774
:10276000314A0029916901D0014300E08143916120
:1027700070472D4A0029D16901D0014300E081430F
:10278000D1617047284A0029916A01D0014300E0D5
:10279000814391627047244A0029D16801D00143E6
:1027A00000E08143D16070471F4A0029116901D0C0
:1027B000014300E08143116170471B490028086B09
:1027C00002D040F0400001E020F040000863704774
:1027D0001B494039086070471749C8647047124A5E
:1027E000516821F070410143516070470E4A5168B1
:1027F00021F0E06141EA0060506070470A48416A98
:1028000041F080714162416A21F0807141627047FC
:10281000054A0146002092680A4200D00120704714
:1028200001498872704700000010024000C0FFF8A4
:10283000FFFFF6FEFFFF00F700004242FFFFC0F778
:102840008004424200003C0800093D0000127A006A
:1028500070FB0008994910B588420AD184140121FF
:102860002046FFF798FF2046BDE810400021FFF703
:1028700092BF9349884202D10121041404E0914996
:1028800088420AD10121C4132046FFF78DFF20465C
:10289000BDE810400021FFF787BF10BD30B50288AA
:1028A0004C8802F441530A88CD8822438C882C43FB
:1028B00022430C8922434C8922438C892243CC89B0
:1028C00022431A430280828B22F400628283098AA7
:1028D000018230BDF0B505460C4602200021AA8BCE
:1028E00087B001264FF240031A40AA832884AF8B99
:1028F000A268022A21D0A08800B102266846FFF70C
:10290000D3FEE1880098B1F5007F2CD07101B0FBB7
:10291000F1F000EB8000A1684000B0FBF1F0401D39
:1029200080B20A21B0FBF1F000F00101401A4FF62D
:10293000FF72C0F34F0002EA0121821EFE2A01D37A
:1029400002200021E288084302432A84208861880B
:10295000A2890843A18811430843384340F400602A
:10296000A88307B0F0BD000AD3E7002101804180B1
:102970008180C180018141818181C18107210182E2
:1029800070470021018041808180C18002228260E5
:10299000818170470029018802D041F0400101E0A7
:1029A00021F04001018070470029818B02D041F461
:1029B000806101E021F4806181837047090901236E
:1029C0008B40002A828899B201D00A4300E08A43F2
:1029D00082807047002A828801D00A4300E08A433F
:1029E000828070478181704780897047A1F57E425F
:1029F0000188FF3A02D041F4807101E021F4807136
:102A0000018070470029818802D041F0040101E073
:102A100021F0040181807047028822F40062028064
:102A200002880A4302807047018841F48051018086
:102A300070470029018802D041F4005101E021F4DF
:102A4000005101807047012901D0008B7047808AB6
:102A50007047008A7047B1F5804F018803D021F498
:102A600080410180704741F48041FAE7024600202E
:102A700012890A4200D001207047C9430181704782
:102A800030B501F00F030125024605FA03F40020DA
:102A9000A3B2090905FA01F49188A4B21289214070
:102AA0001A4202D0002900D0012030BD01F00F02EF
:102AB00001219140C943018170470000003001406D
:102AC00000380040003C0040FE4910B5884202D169
:102AD0000121C41443E0B0F1804F09D0FA49884283
:102AE0000DD101210220FFF75FFE002102202DE021
:102AF00001210846FFF758FE0021012026E0F34996
:102B0000884206D101210420FFF74EFE0021042057
:102B10001CE0EF49884206D101210820FFF744FE5E
:102B20000021082012E0EB49884206D10121102043
:102B3000FFF73AFE0021102008E0E749884209D15A
:102B400001212020FFF730FE00212020BDE81040A9
:102B5000FFF72ABEE14988420AD1012144142046E8
:102B6000FFF719FE2046BDE810400021FFF713BE15
:102B700010BDF0B50268D44DD24FD84EDFF850C327
:102B80002C05D24BB84209D0B04207D0A04205D0A4
:102B9000A84203D0984201D0604504D122F0700EC3
:102BA0004A8842EA0E02DFF82CE3704508D0DFF8CD
:102BB00028E3704504D022F4407ECA8842EA0E021F
:102BC00002608A8882850A880285B84201D0B042B4
:102BD00001D10A7A0286012282820268B84209D0B3
:102BE000B04207D0A04205D0A84203D0984201D0FD
:102BF00060450BD191F809E0BEF1000F02D042F41C
:102C0000006201E022F40062A04205D0A84203D095
:102C1000984201D0604515D191F80AC0BCF1000F6F
:102C200002D042F4805201E022F4805291F80BC0AD
:102C3000BCF1000F02D042F4005201E022F4005235
:102C4000A04203D0A84201D0984209D191F80CC00B
:102C5000BCF1000F02D042F4804201E022F4804235
:102C6000B84207D0B04205D0A04203D0A84201D05C
:102C7000984206D14D7B15B142F4004201E022F4A6
:102C8000004202604268A04201D0984206D1897B8E
:102C900011B142F4807201E022F480724260F0BD12
:102CA00030B5026A22F001020262026A4368048BB4
:102CB00022F0020224F073050C882C430D89154381
:102CC0004A882A437F4DA84202D0844DA8420DD1A4
:102CD00022F008054A8923F440732A4322F00405B0
:102CE0008A882A438D891D43CB892B434360048303
:102CF000C9888186026230BD70B5026A22F0100276
:102D00000262026A4368048B4FF6FF7624F4E645BC
:102D10000C8822F0200206EA04242C430D8942EAA2
:102D200005124D8842EA0512664DA84202D06B4D4D
:102D3000A84211D14D8922F0800242EA05128D8805
:102D400022F0400242EA05128D8923F4406343EAEF
:102D50008503CD8943EA850343600483C9880187DD
:102D6000026270BD30B5026A22F480720262036AA8
:102D70004268848B23F4007324F073050C882C4381
:102D80000D8943EA05234D8843EA05234D4DA842AA
:102D900002D0524DA84211D14D8923F4006343EA79
:102DA00005238D8823F4806343EA05238D8922F46B
:102DB000405242EA0512CD8942EA051242608483FC
:102DC000C9888187036230BD70B5026A22F48052DF
:102DD0000262046A4268838B4FF6FF7623F4E6456D
:102DE0000B8824F4005406EA03232B430D8944EA9C
:102DF00005344D8844EA0534324DA84202D0374D9F
:102E0000A84204D18D8922F4804242EA85124260B0
:102E10008383C988A0F84010046270BD30B5026A8F
:102E200022F480320262046A4268B0F8543024F41A
:102E3000003423F070050B882B430D8944EA0544C8
:102E40004D8844EA05441F4DA84202D0234DA842B4
:102E500004D18D8922F4803242EA05224260A0F832
:102E60005430C988A0F85810046230BD70B5026AA9
:102E700022F480120262046A4268B0F854304FF6BD
:102E8000FF7623F4E0450B8824F4001406EA0323BC
:102E90002B430D8944EA05544D8844EA0554094DF5
:102EA000A84202D00D4DA84204D18D8922F480227F
:102EB00042EA85224260A0F85430C988A0F85C102C
:102EC000046270BD002C0140000400400008004076
:102ED000000C00400010004000140040003401408D
:102EE000828B22F440628283828B4FF6FF7303EA67
:102EF00001210A4382837047828B22F00C02828375
:102F0000828B0A4382837047028B22F440620283E1
:102F1000028B4FF6FF7303EA01210A4302837047D5
:102F2000F0B5046A24F010040462068B046A4FF6BC
:102F3000FF7726F4734607EA0333334307EA022296
:102F40001A43FC4B0D0198420ED0FB4B98420BD01C
:102F5000B0F1804F08D0F94B984205D0F84B984219
:102F600002D0F84B984205D124F02001294341F0CA
:102F7000100104E024F0A0030B4343F0100102838E
:102F80000162F0BD028B22F00C020283028B0A4325
:102F90000283704770B5046A24F001040462058B53
:102FA000046A4FF6FF7606EA0313134325F0F30590
:102FB000E04A2B4390420ED0DF4A90420BD0B0F152
:102FC000804F08D0DD4A904205D0DD4A904202D0C1
:102FD000DC4A904202D124F0020201E024F00A020D
:102FE0000A4342F00101038301626AE72DE9F05FC1
:102FF0000D4604460888CF4ECF4FDFF840C3DFF8B8
:1030000040934988AA882B894FF0804A40B304280E
:103010002ED0082834D0206A9B4620F480502062AD
:10302000A38B206A4FF6FF7823F4734308EA022249
:103030001A4308EA0B3313434FEA013EB4420AD065
:10304000BC4208D0544506D0644504D04C4502D05B
:10305000BC4A944246D120F4005040EA0E0044E0BD
:103060002046FFF797FFE9882046BDE8F05F89E733
:103070002046FFF755FFE9882046BDE8F05F43E7AB
:10308000206A934620F480702062B4F81C80206A85
:103090004FF6FF7202EA031328F0F30843EA0B032A
:1030A0004FEA012E43EA0803B4420AD0BC4208D0DA
:1030B000544506D0644504D04C4502D0A14A944200
:1030C00004D120F4007040EA0E0002E020F42060F9
:1030D000084340F48070A3832062E9882046BDE85D
:1030E000F05F09E720F40050084340F48050A383C8
:1030F0002062E9882046BDE8F05FF1E62DE9F04165
:103100000C46002649880746012501B90226A288F7
:10311000012A00D10225208823890028384610D0B2
:10312000FFF7FEFEE1883846FFF7EEFE23892A46C8
:1031300031463846FFF72EFFE1883846BDE8F041BA
:1031400020E7FFF727FFE1883846FFF71BFF2389B9
:103150002A4631463846FFF7E3FEE1883846BDE8A7
:10316000F041D1E610B50A884B88CC881A438B8889
:1031700023431A430B891A434B891A438B891A43F9
:10318000A0F8442002688B7B13B122F4806201E036
:1031900042F48062CB7B13B142F4803201E022F42E
:1031A0008032097C11B142F4003101E022F4003197
:1031B000016010BD4FF6FF71818000210180C18048
:1031C0004180017241728172C172017341738173D6
:1031D00070470021018041808180C180018141814F
:1031E0008181C1817047002101804180012282805C
:1031F000C180018170470021018041808180C180B0
:1032000001814181818170470029016802D041F02C
:10321000010101E021F0010101607047002930F84F
:10322000441F02D041F4004101E0C1F30E010180CE
:103230007047002A828901D00A4300E08A438281D4
:103240007047818270471143A0F848107047002AE8
:10325000828901D00A4300E08A4382817047018954
:1032600021F0070101817047028922F070020A43B0
:103270000281704700B50346FFF7F6FF188940F05A
:103280000700188100BD70B516460D46602904463A
:103290004FF0010231460AD0FFF77CFE2946204656
:1032A000FFF7E2FF208940F00700208109E6FFF7E1
:1032B00037FEF3E730B504894FF6FF7505EA0323BF
:1032C0001343E4B20B432343038130BD10B50446DE
:1032D000FFF7F0FF208940F07700208110BD10B586
:1032E0000446FFF7E7FF208940F48040208110BDAD
:1032F000018582827047026822F070020A430260F0
:10330000704770B50589048B066A25F007050D43E3
:103310004FF6FC410C4040F201110C434FF6FF7197
:1033200001EA031126F0220611433143058104838B
:103330000162C6E5002C0140003401400004004059
:1033400000080040000C0040028B22F070020A438B
:1033500002837047028B4FF6FF7322F4E04203EAC8
:103360000121114301837047828B22F070020A43CE
:1033700082837047828B4FF6FF7322F4E04203EAA8
:10338000012111438183704730F8542F22F07002DD
:103390000A430280704730F8542F4FF6FF7322F42F
:1033A000E04203EA012111430180704700290168CE
:1033B00002D041F0800101E021F0800101607047FE
:1033C0000029416802D041F0040101E021F004012C
:1033D000416070470029416802D041F0080101E0D6
:1033E00021F00801416070470029416802D041F096
:1033F000010101E021F0010141607047028B22F0E0
:1034000008020A4302837047028B4FF6FF7322F4CF
:10341000006203EA0121114301837047828B22F08D
:1034200008020A4382837047828B4FF6FF7322F4AF
:10343000006203EA012111438183704730F8542F61
:1034400022F008020A430280704730F8542F4FF6EA
:10345000FF7322F4006203EA0121114301807047E7
:10346000028B22F004020A4302837047028B4FF65C
:10347000FF7322F4806203EA012111430183704744
:10348000828B22F004020A4382837047828B4FF6BC
:10349000FF7322F4806203EA0121114381837047A4
:1034A00030F8542F22F004020A430280704730F8AB
:1034B000542F4FF6FF7322F4806203EA0121114377
:1034C00001807047028B22F080020A43028370471A
:1034D000028B4FF6FF73C2F30E0203EA0121114380
:1034E00001837047828B22F080020A4382837047F7
:1034F000828B4FF6FF73C2F30E0203EA01211143E0
:103500008183704730F8542F22F080020A430280F2
:10351000704730F8542F4FF6FF73C2F30E0203EAE0
:103520000121114301807047026A22F002020A431E
:1035300002627047026A22F008020A430262704780
:10354000026A22F0200242EA011101627047026A17
:1035500022F0800242EA011101627047026A22F4FD
:10356000007242EA012101627047026A22F400629D
:1035700042EA012101627047026A22F4005242EAE3
:10358000013101627047026A22F4003242EA0141CD
:1035900001627047026A22F4001242EA015101629C
:1035A000704710B501238B40046A9BB29C430462B0
:1035B000036A8A401343036210BD10B504238B4095
:1035C000046A9BB29C430462036A8A401343036209
:1035D00010BD30B50124056A00F118038C40E443A6
:1035E000A4B22540056289B108290FD0091FC1F393
:1035F0004E001844016821F4E041016001684FF673
:10360000FF7303EA02221143016030BD03EB510056
:10361000016821F0700101600168F4E70029016888
:1036200002D041F0020101E021F002010160704787
:103630000029016802D041F0040101E021F00401F9
:10364000016070470029416802D041F0800101E02B
:1036500021F0800141607047026822F00802026098
:1036600002680A4302607047426822F070024260BA
:1036700042680A4342607047028922F007020281D1
:1036800002890A4302817047028922F08002028186
:1036900002890A430281704781847047818570479F
:1036A000818670470187704781877047A0F8401076
:1036B0007047A0F858107047A0F85C107047026877
:1036C00022F44072026002680A4302607047808EF2
:1036D0007047008F7047808F7047B0F84000704788
:1036E000B0F858007047B0F85C007047808C7047A5
:1036F000008D7047808D7047194B002298420ED084
:10370000184B98420BD0B0F1804F08D0164B98421E
:1037100005D0164B984202D0154B984203D1006A4F
:10372000084200D00122104670470246002012696C
:103730000A4200D00120704702698A430261704743
:1037400002460020136992890B4202EA010202D06C
:10375000002A00D00120704702698A430261704745
:10376000002C0140003401400004004000080040EB
:10377000000C004070B5C049884202D101218C0381
:103780002AE0BE494FF40034884201D1012116E0FD
:10379000BB494FF48025884206D101212846FFF716
:1037A00003F8002128460FE0B649884202D10121E2
:1037B000CC0404E0B44988420AD101210C0520461A
:1037C000FEF7F2FF00212046BDE87040FEF7ECBF97
:1037D000AE49884206D101212046FEF7DCFF0021D8
:1037E000204608E0AA49884209D101212846FEF76F
:1037F000D2FF00212846BDE87040FEF7CCBF70BD67
:1038000030B50446008A87B00D464CF6FF7108407B
:10381000E98801432182A1894EF6F3100140A8886E
:103820002A8910436A890A431043A081A08A4FF66F
:10383000FF410840A9890143A1826846FEF734FF91
:103840008D48844205D091498C4202D090498C42E7
:1038500001D1039800E00298642200EBC00101EB63
:10386000001029686FF018058900B0FBF1F0B0FB7B
:10387000F2F109010B096B4300EB8300322303EBE8
:103880000010B0FBF2F000F00F000843208107B0F9
:1038900030BD4FF41651016000218180C18001814B
:1038A0000C2242818181704710B5028A4FF2FF03DA
:1038B0001A400B884C8823438C88C9880C432343C7
:1038C0001343038210BD0021018041808180C180AB
:1038D00070470029818902D041F4005101E021F4B0
:1038E00000518181704710B5C1F3421301F01F04EC
:1038F0000121A140012B07D0022B07D01430002A50
:10390000026805D00A4304E00C30F8E71030F6E70F
:103910008A43026010BD002A828A01D00A4300E077
:103920008A4382827047028A22F00F020282028A50
:103930000A4302827047828922F40062828182896E
:103940000A43828170470029818902D041F0020137
:1039500001E021F0020181817047028A22F02002F9
:103960000282028A0A43028270470029018A02D039
:1039700041F4804101E021F4804101827047C1F3AC
:103980000801818070478088C0F3080070478189F2
:1039900041F0010181817047028BD2B20283028B18
:1039A00042EA012101837047028B02F47F420283C5
:1039B000028B0A43028370470029818A02D041F0BA
:1039C000200101E021F02001818270470029818AD5
:1039D00002D041F0100101E021F010018182704716
:1039E0000029818A02D041F0080101E021F008019C
:1039F00081827047828A22F004028282828A0A438C
:103A0000828270470029818A02D041F0020101E0E0
:103A100021F00201818270470246002012880A428A
:103A200000D001207047C9430180704770B501F094
:103A30001F0501260024C1F3421306FA05F2012BEB
:103A40000FD0022B0FD0838A4FEA11210088134236
:103A500006FA01F600EA060001D000B10124204672
:103A600070BD8389F0E7038AEEE70A0A01219140DD
:103A7000C943018070470000003801400044004005
:103A800000480040004C0040005000400050014001
:103A900000540140F0B54542002801DD034600E036
:103AA0002B464C42002901DD0E4600E026469F19B8
:103AB0005342002A01DD164600E01E463E440FFA3E
:103AC00086FCFE4E0027BCF5FA7FA6F80CC032DD5E
:103AD000002800DC28468511F580002900DC2146FD
:103AE00088113081002A00DC1A469111718125B1BC
:103AF000378030B1778041B10BE03288521C328080
:103B0000F7E77088401C7080F5E7B088401CB080F3
:103B100000E0B780EA48B6F90010B0F948008842E2
:103B200007DBB6F90210884203DBB6F904108842BD
:103B300004DA0720F0BD37807780EAE70020F0BD87
:103B400070B5DF4C00252046638AB0F90620B0F935
:103B50000810B0F90A007BB3B4F90060B31A002B67
:103B600000DC931B9B112AD1B4F90260731A002B5D
:103B700000DC8B1B9B1122D1B4F90460331A002B9B
:103B800000DC831B9B111AD1CE4B1B8EA3B9CE4BED
:103B90001B88052B11D0CD4B1B88042B0DD0B4F8FE
:103BA0004E305B1C1BB2A4F84E30B4F93650AB4219
:103BB00005DB0723638602E0FFE7A4F84E504FF4CD
:103BC000827506238232AA4200D963868231A942D5
:103BD00000D963868230A84200D9638670BDB94897
:103BE000B74A818F09B904215186B0F9380040F2F3
:103BF000CF71C84209D1B149086A401C08625028F7
:103C000003DB05205086002008627047AF4810B5DE
:103C1000B0F92200002800DC4042AA4AA84BB2F9C1
:103C20002610884220DD988A401C01B299821846ED
:103C3000B2F93040B0F92800A41C00EB8002042C3B
:103C400008D8B1EB420F0EDB00EB800040009882F9
:103C5000082007E0B1EB820F05DB00EB800080005D
:103C600098820920588610BD0020988210BD954981
:103C7000B1F93000002800DC4042B1F92810904A28
:103C800088420BDDD08A401C00B2D082B2F96210AB
:103C9000884202DBD1820A20508670470020D08201
:103CA000704710B54FF4007422468949894802F0E4
:103CB00014FC22468849894802F00FFC22468849B4
:103CC000884802F00AFC82488749028821F86A2B5A
:103CD000828821F8682C028921F8662CB0F8A82186
:103CE0000A85B0F8AC214A85B0F8D0210A87B0F82F
:103CF000D4214A87B0F8D8218A87B0F8DC21CA8756
:103D00006F49B0F8702221F8242FB0F874224A804D
:103D1000B0F878228A80B0F87C22CA80B0F880227D
:103D20000A81B0F884224A81B0F890224A82B0F821
:103D30009822CA82B0F89C220A83B0F8A0224A8353
:103D4000B0F8A4228A83B0F8A822CA83B0F8AC22C3
:103D50000A84B0F8B0224A84B0F8B4228A84B0F859
:103D6000B822CA84B0F8BC220A85B0F8E022CA871B
:103D7000B0F8EC22A1F84620B0F8F422A1F84A20CD
:103D80005049B0F83C234A86B0F84823CA84B0F8BA
:103D90004C238A84B0F850230A85B0F85423CA8093
:103DA000B0F858230A81B0F8680388874A484F4A18
:103DB00030F8041B11804E4A30F8041B1180416812
:103DC00030F8082B01EB02414A4A1160416830F893
:103DD000062B01EB0241484A1160484A4188118094
:103DE000474AC1881180474A418F1180464A30F8BE
:103DF0003E1F1180816830F8042F01EB0241434AD5
:103E0000116050F80C1F30F8042C01EB0241404ABD
:103E10001160404A818811803F4A018911803F4AE0
:103E2000818F11803E4AB0F840101180B0F84420D4
:103E3000816C01EB02413B4A1160B0F84C20016DEE
:103E400001EB0241384A1160384AB0F85410118031
:103E5000374AB0F858101180364AB0F88C101180EB
:103E6000354AB0F890101180B0F89420D0F898102E
:103E700001EB0241314A1160B0F89C20D0F8A0104B
:103E800001EB02412E4A11602E4AD0F8A4101160B5
:103E90002D4AD0F8A81011602C4AB0F8DC1011801F
:103EA0002B4AB0F8E0101180B0F8E420D0F8E81008
:103EB00001EB0241274A11604EE00000C4020020DD
:103EC0000C15002080150020C0150020B80100202E
:103ED000E015002000B80308E01D002000C803081A
:103EE000E025002000D803086214002030020020E2
:103EF0003202002034020020380200203C02002060
:103F00003E02002040020020420200204402002025
:103F1000480200204C0200204E02002050020020E7
:103F20005202002054020020580200205C020020AF
:103F30005E02002060020020620200206402002075
:103F4000680200206C020020700200208402002021
:103F50008602002088020020B0F8EC20D0F8F01093
:103F600001EB0241FE4A1160FE4AB0F8F4101180E4
:103F7000FD4AB0F8F8101180FC4AB0F82C111180FD
:103F8000FB4AB0F830111180B0F83421D0F8381164
:103F900001EB0241F74A1160B0F83C21D0F8401122
:103FA00001EB0241F44A1160F44AB0F84411118067
:103FB000F349B0F848010880F24890ED000AF8EEA5
:103FC000C00A9FEDF10AF149F44A80EE801A81EDB2
:103FD000001AD0ED010AEE49F8EEE00A80EE801AF0
:103FE00081ED001AD0ED020AEA49F8EEE00A80EE0F
:103FF000801A81ED001AD0ED030AE749F8EEE00AD5
:1040000080EE801A81ED001A018A1180E449808ACD
:10401000088010BD2DE9FE4FE248E3490D22B0F9BA
:104020000080E24821F86A8BCDF80880B0F9008062
:10403000DF4821F8688CCDF80480B0F9008021F8C1
:10404000668C0020CDF800808884C8840A8540F200
:1040500046524A854FF4FA728A854FF60C62CA8539
:104060000886488688861E24CC8601260E874FF453
:1040700090624A878E874FF47A72CA87CD4A642548
:104080004FF0140B108250829082108342F81C0F64
:104090004FF4965150601581A2F80AB0A2F80CB006
:1040A000D18141F23B511182082151829082D0820C
:1040B000548390834FF4AF51D18340F6B8311184CB
:1040C00041F26801518440F6B83191844FF4AF71E8
:1040D000D184158555859485D58510865086908622
:1040E000D086108750879087A2F84060D0874FF025
:1040F000050AA2F846A0A2F84A40A2F84C40A2F84D
:104100004E000621A2F85010AB4BA2F852A0A2F824
:1041100054001880588098804FF42F7159819881ED
:1041200018615861A3F832A0D86118624BF2E1110E
:1041300058631987588798874FF47A71D98440F665
:10414000C411998440F6AC5119859049DE809FEDE9
:104150009B0A1E8181ED000A9FED990A8C4981ED31
:10416000000A9FED970A8B4981ED000A9FED930AA3
:10417000894981ED000A8949088089490D80914962
:104180004FF4804C904FA1F800C0CCF10009A7F883
:1041900000908E4F4FF0005E2107C7F800E08C4F73
:1041A000DFF83C8239608B4950270F808A490F80A5
:1041B0008A49A1F800C0A8F80090DFF828822107FA
:1041C000C8F800E0DFF82082C8F800108749DFF85F
:1041D00028820F8086490F808649A1F800C0A8F880
:1041E0000090DFF818822107C8F800E0DFF810829D
:1041F000C8F80010DFF80C82C821A8F80010824926
:10420000DFF808820C8047F23331A8F80010DFF89D
:10421000008248F6CD41A8F80010DFF8FC817D4906
:10422000C8F80010DFF8F4814942C8F80010DFF840
:10423000F0814FF49671C8F800107A49DFF82C81AC
:104240000C6046F26661A8F80010DFF8248149F698
:104250009A11A8F80010DFF81C814FF03331C8F82C
:104260000010DFF814814942C8F8001043490C805F
:10427000DFF80C810321A8F80010DFF8AC8141F2CF
:104280000A71A8F80010DFF8A4814EF6F601A8F82C
:104290000010DFF8A0816649C8F80010DFF8C08080
:1042A0004942C8F800102F49DFF8BC800C806249F1
:1042B000A8F800B0DDF80880C1F80080DDF80480BF
:1042C000C1F80480DDF80080C1F80880C1F8A001C1
:1042D0004FF00D08C1E9690840F24658C1F8AC81B9
:1042E0004FF4FA78C1F8B081C8F10008C1E96D80D7
:1042F0004FF49068C1F8BC01C1E97468C1E9700469
:10430000C1F85802C1F85C02C1F86002C1F8640249
:104310004FF47A78C1F86802C1E97668C1E99DBBBB
:104320004FF49658C1F87C8241F23B58C1F8808224
:10433000C1E99B054FF00808C1E9A180B2F9162038
:10434000C1E9A3244FF4AF52E1E9A50240F6B83227
:104350008A6041F26802CA6040F6B8320A616DE0D4
:104360008C020020900200209202002074020020A3
:1043700076020020780200207C02002080020020CB
:1043800082020020E025002000007A449C020020E8
:10439000A0020020A4020020A8020020AC020020FD
:1043A000AE02002000000020621400200600002061
:1043B000080000200C15002080150020CDCC4C3EBC
:1043C0000AD7233C300200203202002034020020B1
:1043D000380200203C0200203E0200204002002063
:1043E0004202002044020020480200204C0200202B
:1043F0004E020020500200205202002054020020F1
:10440000580200205C0200205E02002060020020B2
:104410006202002099999939640200206802002004
:104420006C0200207002002084020020860200201E
:10443000B81E850B88020020E01500204FF4AF72F3
:10444000C1E90525C1E90754C1E90950C8620863FB
:1044500048638863C863C1E910068864C1E913A48E
:1044600006224C65C1E91602C1E918A0C1F88C000A
:104470004FF42F72C1F89000C1E92502C1F89C00E9
:10448000C1F8A000C1F8A400A3F818A0C1E92AA0AF
:104490004FF47A72C1E92C0240F6C412C1F8B82078
:1044A00040F6AC52C1E92F26FE4AC1F8C460C1E90A
:1044B0003202C1F8D000C1F8D400FB497203C1E94F
:1044C00002204FEA69020A61C1E90507CF61E1E80C
:1044D00024C9720341E910C941E90E204FEA69027B
:1044E00041F8302C41E90B0741F8247CC1E904C9AB
:1044F0007203C1E906204FEA6902C1E90820C82217
:10450000C1E90A2447F233320A6652424A6643F648
:1045100099128A6649F69912CA66E44A0A6746F20F
:1045200067624A674FF496728A6741F87C4F41F29E
:104530000A724A6352428A6340F68532CA6341F680
:10454000B8620A64DA4A4A644EF24812C1E9122497
:1045500041F850BF46F266624A6352428A6343F2B0
:104560003332CA630A64D2434A644CF6CD42C1E98D
:10457000122403220A65CF4AC82111600A21516022
:104580009160C821D1601146720208610846CA498B
:104590004561CA4801F066FF7202C349C84801F08C
:1045A00061FF03B07202BDE8F04FC249C54801F097
:1045B00059BFC54910B5C04831F9022B04C031F9C3
:1045C000682B04C031F9662C40F8082BB1F924207F
:1045D000C0F89021B1F92620C0F89421B1F9282023
:1045E000C0F89821B1F92A20C0F89C21B1F92C20FB
:1045F000C0F8A021B1F92E20C0F8A421B1F93020D3
:10460000C0F8A821B1F93220C0F8AC21B1F93420AA
:10461000C0F8B021B1F93620C0F8B421B1F9382082
:10462000C0F8C021B1F93A20C0F8C421B1F93C204A
:10463000C0F8C821B1F93E10C0F8CC11A349B1F9B6
:104640001010C0F84812A149B1F91210C0F84C126C
:104650009E49B1F91410C0F850129C49B1F91810D4
:10466000C0F854129949C969C0F858129749096AA3
:10467000C0F85C129549B1F92410C0F86012934952
:10468000B1F92610C0F864129049B1F92810C0F8A9
:1046900068128E49B1F92A10C0F86C128B49B1F931
:1046A0002C10C0F870128949B1F92E10C0F874129C
:1046B0008649B1F93010C0F878128449B1F9321046
:1046C000C0F87C128149B1F93610C0F880127F49D8
:1046D000B1F93810C0F884127C49B1F93A10C0F829
:1046E00088127A49B1F93C10C0F88C127749B1F9B7
:1046F0003E10C0F890127549B1F94010C0F89412FC
:104700007249B1F94210C0F898127049B1F94410D9
:10471000C0F89C126D49B1F94610C0F8A0126B495F
:10472000B1F94810C0F8A4126849B1F94A10C0F8AC
:10473000A8126649B1F94C10C0F8AC126349B1F93E
:104740004E10C0F8B0126149B1F95010C0F8B4125F
:104750005E49B1F95210C0F8B8125C49B1F9541071
:10476000C0F8BC125949B1F95610C0F8C0125749E7
:10477000B1F95810C0F8C4125449B1F95C10C0F82E
:10478000C8125249B1F95A10C0F8CC124F49B1F9C8
:104790006210C0F8D0124D49B1F96610C0F8D412B9
:1047A0004A49B1F96810C0F8D8124849B1F96A10FD
:1047B000C0F8DC124549B1F96C10C0F8E012434969
:1047C000434AB1F96E10C0F8E4124049B1F97010D3
:1047D000C0F8E81200211180C0F810135180C0F811
:1047E00014139180C0F818131146B1F90A10C0F8DB
:1047F0001C1300219181C0F820131161C0F824130B
:104800005161C0F8281305211183C0F82C13002131
:10481000D161C0F830131162C0F834131146B1F9F8
:104820002610C0F838131146B1F92410C0F83C1313
:104830001146B1F92810C0F840131146B1F906101D
:10484000C0F844131146B1F90810C0F848131146D6
:10485000496BC0F84C131146B1F93810C0F8501329
:104860001146B1F93A10C0F8541311460E4AB1F985
:104870003C10C0F8581317480B49B0F90000086005
:104880001548B0F9000048601448006801149160B0
:10489000114680B2C860124800680114116180B2EC
:1048A00011461FE0E1B1FFFFE01D002066C6FFFFDB
:1048B0007AF4FFFFE0250020E015002000B803088F
:1048C00000C8030800D80308621400200C1500205B
:1048D0008015002030020020320200203402002027
:1048E000380200204861F848B0F900008861F748B4
:1048F000B0F90000C861F648B0F900000865F54855
:10490000B0F900004865F44800680114916511464B
:1049100080B2C865F148006801141166114680B282
:104920004866EF48B0F900008866EE48B0F900002C
:10493000C866ED48B0F90000C1F8A000EB48B0F936
:104940000000C1F8A400EA4800680114C2F8A810E9
:10495000114680B2C1F8AC00E64800680114C2F804
:10496000B010114680B2C1F8B400E348B0F90000BD
:10497000C1F8B800E148B0F90000C1F8BC00E04857
:10498000B0F90000C1F8F000DE48B0F90000C1F84D
:10499000F400DD4800680114C2F8F810114680B236
:1049A000C1F8FC00D94800680114C2F80011114692
:1049B00080B2C1F80401D6480068C1F80801D548A2
:1049C0000068C1F80C01D448B0F90000C1F84001FA
:1049D000D248B0F90000C1F84401D1480068011480
:1049E000C2F84811114680B2C1F84C01CD480068A8
:1049F0000114C2F85011114680B2C1F85401CA48DE
:104A0000B0F90000C1F85801C848B0F90000C1F879
:104A10005C01C748B0F90000C1F89001C548B0F981
:104A20000000C1F89401C44800680114C2F898114C
:104A3000114680B2C1F89C01C04800680114C2F858
:104A4000A011114680B2C1F8A401BD48B0F9000020
:104A5000C1F8A801BB48B0F90000C1F8AC01BA48E0
:104A6000D0ED000A9FEDB90A60EE800AFDEEE00A83
:104A700010EE900A01B2B6480160B649D1ED000AC5
:104A800060EE800AFDEEE00A4FF40074224610EE5C
:104A9000901A09B24160B049D1ED000A60EE800A77
:104AA000FDEEE00A10EE901A09B28160AB49D1ED3B
:104AB000000A20EE800ABDEEC00A10EE101A09B2FC
:104AC000C160A749B1F900100161A649B1F9001010
:104AD0004161A549A54801F0C5FC2246A449A54865
:104AE00001F0C0FC2246BDE810409949A24801F0FF
:104AF000B9BC70B5A14A4FF416604FF42F635085CE
:104B00004FF4C860D0879E485387808800EE100A13
:104B1000B8EE400ADFED9B0A0F2120EE200ABDEE21
:104B2000C00A10EE100A01FA80F000B24FF416012C
:104B300091FBF0F1944D1087D161EC89C0F5C8610B
:104B4000214409B20026E981002905DCEE81518E5D
:104B5000032908D1568606E0B2F940408C4202DCB7
:104B6000EC8103215186298AC01A084400B22882A8
:104B7000002805DC2E82508E022800D1568670BD9A
:104B8000B2F93C108142FADC29820220508670BDC5
:104B90007A4A508E00281ED0B2F86000002100B37F
:104BA000A2F86010B2F93200122814D009DC0B28E8
:104BB00011D2DFE800F010101010101011101010BA
:104BC0000F00302807DA152804D004DC132801D0A0
:104BD000142800D15186704751869181A2F84E1059
:104BE0007047508E0428FBD06848018068480180D7
:104BF00070472DE9F05F674F604901263E80888E3F
:104C00004FF00209012801D1A7F800905F48B0F9E0
:104C10003000C01C072801D303203880498EDFF8FC
:104C200078810804000CA8F800104FF0000400D0B0
:104C30003C803888DFF864B1534D4FF4005A20B9F6
:104C40006C8351465846FDF74CFBB7F9000001282C
:104C500004D0022808D0032809D009E06C8351460B
:104C60005846FDF742FB03E00420E88300E0EE83B2
:104C7000B5F91A00B5F91E1088420FDD6C83A88BB8
:104C800040B10020A88300285146584604D0FDF7C3
:104C90002CFB03E00120F5E7FDF723FB688B401CAC
:104CA0006883B5F9180068B101287FD0022807D1C0
:104CB000688A401C00B268820A2801DD6C822C835D
:104CC000BDE8F09F6CE071E03C0200203E02002055
:104CD000400200204202002044020020480200203E
:104CE0004C0200204E020020500200205202002000
:104CF00054020020580200205C0200205E020020C6
:104D0000600200206202002064020020680200208D
:104D10006C02002070020020840200208602002025
:104D2000880200208C0200209002002092020020C5
:104D30007402002076020020780200207C0200200D
:104D400080020020820200209C02002000007A44A1
:104D5000E0250020A0020020A4020020A8020020DC
:104D6000AC020020AE020020E015002000B80308CD
:104D7000E01D002000C8030800D803080C1500201F
:104D8000E02D00204BEA643FC40200208015002083
:104D9000B80100209602002094020020001001407B
:104DA000B8F9000000288BD02E83E882A88A50B181
:104DB0000020A88200284FF48041584605D0BDE865
:104DC000F05FFDF792BA0120F3E7FDF78AFA688AEF
:104DD000401C00B26882B5F916108842FFF670AF29
:104DE000A5F818906CE700002DE9F05FFE4DDFF8A4
:104DF000FCB30027B5F90010BBF81C00DFF8F093F6
:104E0000DFF8F083DFF8F0A3FC4CFD4E00B205297B
:104E100075D006DC052932D2DFE801F033757F88D2
:104E20009F0006296CD007296BD00A296AD03D293A
:104E300025D16880FBF763FFB8F83800B8F83A105E
:104E40000844B8F8321010FB01F0C0F30E00608087
:104E5000A881BAF92C00EB4C40114FF41671206078
:104E6000884202DC4942884200DA2160B5F922001A
:104E70006060216BE3488847B4F92C00A862BDE864
:104E8000F09FFBF72AFFBBF81C00688041F29310EB
:104E9000A5F8400047F6FF70A5F84200AF84AF8543
:104EA00047F23332AF626A616780D749CAF8187037
:104EB000C9F824708F6142F26663B7610B844DF6C6
:104EC0009A134B84D14B4B625B428B62C823CB60FD
:104ED0001E2338460B6188604FF4FA61F1600521AA
:104EE0003161B060328448F6CD407084C8480068B3
:104EF0007062C8480068B0621420E885BFE75BE0D4
:104F00006EE09BE0C4E06880FBF7F9FE4FF47A6046
:104F1000A885C148B0F890001DE06880FBF7EFFE5F
:104F200060880A30C0F30E00608014E04FF48050B7
:104F30006880FBF7E4FEB8F83800B8F83A10084487
:104F4000B8F8321010FB01F0B349C0F30E006080D6
:104F5000B1F89E10A985A88191E7B8F8001004293E
:104F600004D0FBF7BAFEC9F8247088E76880FBF725
:104F7000C6FEB8F83810B8F83A000844B8F832104D
:104F800010FB01F0C0F30E006080A8814C46D8F8F9
:104F90001C00C4E90107B8F93000C9F80C00B5F9E4
:104FA0002200C9F81000D9F83C1091488847208F9A
:104FB000A885B761776362E76880FBF7A0FEB8F861
:104FC0003800B8F83A100844B8F8321010FB01F075
:104FD000C0F30E006080A8819048B0F92C004DE726
:104FE0006880FBF78CFEB8F83800B8F83A1008442F
:104FF000B8F8321010FB01F0C0F30E006080A881F9
:10500000B08E1F2200B2022101F07AFA6063B08EE6
:10501000072200B2032101F073FAA063DAF800104E
:10502000A1F15102312A00D2A885502901DAA28EBD
:10503000AA85A02900DDB08EA88520E76880FBF74F
:105040005EFEB8F83800B8F83A100844B8F83210E4
:1050500010FB01F0C0F30E006080A881B08E1F220B
:1050600000B2022101F04CFA6063B08E072200B258
:10507000032101F045FAA063DAF80010A1F1510212
:10508000312A00D2A885A029D6DDB08EA885D3E725
:105090006880FBF734FEB8F83800B8F83A100844D6
:1050A000B8F8321010FB01F0C0F30E006080A88148
:1050B000C9F80070D8F81C00C9F80400D9F83C10F1
:1050C0004C464B488847B4F93800D7E62DE9F04103
:1050D000494F4A4D444C3868E969E861461A4A48E4
:1050E00000210160B4F920104160016B88474448F9
:1050F000B4F922104FF4FA724160B98D11FB02F13C
:10510000120191FBF2F100EE101A06EB8601490044
:1051100000EE901AB8EEC00A364EF8EEE00A30EE15
:10512000200ABDEEC00A80ED000A218A0187318E77
:105130008185A16A0163C16B8847B08F29880844C3
:105140007087BDE8F08170B5284C40F6FF752A469F
:10515000B4F90000002101F013FAE080B4F9020074
:105160002A46012101F00CFA2081B4F9000008223E
:10517000002101F0C5F9E1881B4D401A0822A880E2
:10518000B4F90200012101F0BBF92189401AE8803D
:105190001848018F828F408E11444143C1F30E00A5
:1051A000E881284603F06DFAFFF790FFFFF71CFE39
:1051B000B5F92C10A86A884203DAB5F92E201044FC
:1051C000A862884203DDB5F92E10401AA862014694
:1051D0006869814200DDA862A96A4042814200DA22
:1051E000A862608E10B31BE0B80100200C150020EF
:1051F0001C0100208015002074000020E80200201F
:10520000A8000020400000200C000020CCCCCC0CDA
:10521000640200206802002062140020E8000020E0
:10522000608E042802D00020A862A884FE4803F003
:1052300050FAFD4803F093FBFC49688F0880091D74
:105240000880091DA88F0880091D088070BD2DE900
:10525000F84FF74A9088401C00B290800A287DDB06
:1052600000259580F44CF34EF448B4F900B0B6F93B
:105270000010B0F900000090F14BF24F3046D3F827
:105280000090B0F90AE0E84CD7F800A0052966D0F4
:1052900009DCED4B4FF0010705295FD2DFE801F093
:1052A0007586E0FDFC00E348E84FB0F906303A6847
:1052B000B0F9308002EB030CB0F90830B0F902000D
:1052C000D31A3F6B06296ED007296DD03D296CD0CB
:1052D000472966D1DFF87883DE4898ED000AB8EEFA
:1052E000C00A02F011F9DC48DC494FF0070980ECF4
:1052F000030ABDEEC00AD8F800000968D84F01447F
:10530000C8F80010A4F800907089208287ED000A88
:105310009FEDD40A20EE800ABDEEC00A10EE100AFE
:1053200000B2B860B6F93000F860F06947F8040FD1
:10533000608CF887F96CCA488847C4484FF4967166
:105340004FF4FA72C1601E210161B98F11FB02F1A5
:10535000B7F9302091FBF2F1016001E021E0C1E0FA
:10536000B6F930104160016B8847BF49D8F800009A
:105370000968884273DCBD49F069BD4AC969884241
:1053800002DD1378002B6AD1EEE025803583A3F887
:105390009A50A3F89050D580A3F88E50158155628D
:1053A0002582BDE8F88FAAE0D3E0B8E02780B3F803
:1053B0009C00401C00B2A3F89C00642827DBA3F8E3
:1053C0009C50A148B3F99A40B3F99610B0F99800EF
:1053D0008C4204DA18B9641CA3F89A40D780B3F958
:1053E0009A40844207DD39B9641EA3F89A404FF011
:1053F000FF31D18009E041B148B1A3F89A50A3F838
:105400009050D580A3F88E5001E00028F5D0B3F974
:105410009A00B3F9904000EE100AB8EEC00ADFED32
:10542000950A20EE200ABDEEC00A10EE101A04FA0A
:1054300081F1C1F30E01A3F890104010B3F992105E
:1054400000EB800040004143B3F99400B2F906201C
:10545000A0F5FA7000FB0210A3F88E00A1E788E027
:10546000308F516AB6F832C0084400FB0CF0C0F32C
:105470000E0CC2F820C0A3F8905040F2DC50A3F804
:105480008E00278010894FF47A73401C00B210817F
:10549000984286DB138101E012E00EE0491CACF576
:1054A000F85CC1F30E00ACF1FD0C5062BCF1070FCB
:1054B000D4D21930B087358073E70320208070E79D
:1054C000042020806C48316901606048A0F820B059
:1054D000009941844FF49671C1601E210161C0E9B9
:1054E000099A5EE7052020806448A4F810E0B4F92A
:1054F00022104160016B01B0BDE8F04F0847062162
:1055000021805249824205DAC1F800C0844518DB87
:10551000086016E015DD0B608342F9DD11E05849A3
:105520003225CD600D61C1E9099AA1F820B0009D36
:105530004D843D2121804549A4F810E08242E3DBFF
:10554000E9DCC1F8048001B0BC46BDE8F04F3F483B
:10555000604704202080404890ED000A4648BDEE98
:10556000C00A80ED000A1CE78842A5DA10780028FE
:10557000A2D1A6F80090042020803F484562F0693F
:1055800030610EE7F0B52B4E294A3046B6F9384067
:10559000006A25134FF001034FF0000107D00725E3
:1055A000B5EB243F10D15589012D08D00AE095892B
:1055B000012D02D1401C3062918153810AE0401ECE
:1055C00030625181938105E00320B0EB243F01D18B
:1055D00051819181306AC4F30E05C0EBC03028447C
:1055E000F061508B401C00B250830A287EDB254DB1
:1055F000518341F28837B5F90E00EC81201A2C4610
:10560000B842B4F9104000DD204641F28837F84234
:1056100000DA2046288244F28774604342F2107414
:1056200090FBF4F000B22FE0B8010020342C0140D0
:10563000E8020020801500206002002062020020A5
:105640006402002068020020621400207400002020
:1056500024030020302F0020CC2E00202C0300201B
:1056600060010020355EEA3F28030020C0150020BD
:1056700038030020E17ADA411C010020E800002014
:10568000400000200C1500203086364FB2F90E4045
:10569000956A37F914C00544956227F81400641C14
:1056A00024B2D481178AEFB3A5EB0C05EF179562EE
:1056B00005EB17752D117585102C00DBD181294F55
:1056C000B2F912402037D56A37F914C00544D562C3
:1056D00027F81400641C24B25482978A97B3A5EB70
:1056E0000C05EF17D56205EBD76500E022E06D11E0
:1056F000B585202C00DB5182DFF868C0B2F9164076
:105700000CF1600C156B3CF91470054415632CF812
:105710001400641C20B2D082148BDCB1EB1BDC17AC
:10572000136300E007E003EB94639B11F3854028CB
:1057300000DBD182F0BD95FBF4F57585102CBEDB46
:105740001382BBE7FFE795FBF4F5B585202CD3DB8F
:105750009382D0E795FBF0F4F4854028EADB1383CD
:10576000E7E70000EC2D002001880122491C0BB264
:10577000002103800A2B0ADB0180428343885B1CE3
:10578000438083885B1C8380C3885B1CC380B0F923
:1057900002300A2B07DBC283418043895B1C4381B3
:1057A00083895B1C8381B0F90430192B01DB0284EF
:1057B0008180B0F90630322B01DB4284C180B0F920
:1057C0000A300A2B01DB82844181B0F90C30192B9D
:1057D00004DBC2848181038A5B1C0382B0F9103030
:1057E000022B04DB02850182438A5B1C4382B0F9F1
:1057F0001230022B04DB42854182838A5B1C838248
:10580000B0F914303C2B04DB82858182C38A5B1C97
:10581000C382B0F916303C2B04DBC285C182018BF8
:10582000491C0183704700002DE9F05FB548B64C74
:10583000B64D90F90000DFF8D89281B22180288817
:10584000DFF8D0B20127002610B1802802D008E08E
:10585000E68206E0A9F86070AF4AE682CBF8006005
:1058600016804FF0060A4FF00A08012953D10B2287
:10587000A9F85E20B4F916100B294CD2DFE801F02C
:1058800006121B27AA2E3338FE424F004FF4187021
:10589000A0800021A14805F0FEFF288806283AD103
:1058A000E78238E040F23120A08000219B4805F0DB
:1058B000F2FF022024E0072819D10320E08240F201
:1058C0003320A0800021954805F0E5FF23E00F2854
:1058D000F2D10420E08240F23720F2E7A4F816A0CB
:1058E00040F23760EDE70228E6D10720E082DAE0F7
:1058F00040F21760A0800021884805F0CCFF082006
:10590000E08208E04FF41070A0800021834805F089
:10591000C2FFA4F816802088032802D0C3E0E682E4
:10592000C1E00D20A9F85E00B4F91610102930D29C
:10593000DFE801F00937404850527AA5AEB0085769
:105940005F666E70EBE77648018876480184764999
:10595000098841847549096841627549096881620D
:1059600042F21071C1607349096886600660866101
:1059700001617148CBF80060002106804FF4187077
:10598000A080664805F087FF2888022802D00628F4
:1059900005D088E00B20E0824FF492503EE0E78291
:1059A00081E040F23120A08000215C4805F073FFC7
:1059B00002209BE72888072875D10320E08240F267
:1059C00033202BE028880F286DD10420E08240F29C
:1059D000372023E0052089E7A4F816A040F23760BD
:1059E0001CE0288806285ED10C20E08241F231209C
:1059F00014E02988072956D1E08241F233200DE0D6
:105A000028880F284FD10E20E08241F2372005E090
:105A10000F206BE7A4F816A041F23760A0800021A8
:105A20003E4805F038FF3EE02888022801D10720D3
:105A3000E082414940F6B8335A46A1F800A0DBF8AD
:105A40000000984202DC5B42984200DA1360BBF827
:105A50000000488039480A2F00884881CF800F8194
:105A600001DDA1F806803846012F00DA0881B1F97E
:105A700008000A2817DDA1F8088014E008E040F2C9
:105A80001760A0800021254805F005FF08202DE7BC
:105A900009202BE74FF41070A08000211F4805F06B
:105AA000FAFEA4F8168025498888401C00B2888038
:105AB000282804DB488870B1002048808E80B9F81F
:105AC00032001F4A0028A088897806D0082303EBFB
:105AD0008131084403E00120EFE700EB81301080C2
